:020000040000fa
:080000000002040000000000f2
:020000040000fa
:04000800860300006b
:020000040000fa
:04000c008603000067
:020000040000fa
:040010008603000063
:020000040000fa
:04001400860300005f
:020000040000fa
:04001800860300005b
:020000040000fa
:04001c008603000057
:020000040000fa
:040020008603000053
:020000040000fa
:04002400860300004f
:020000040000fa
:04002800860300004b
:020000040000fa
:04002c008603000047
:020000040000fa
:040030008603000043
:020000040000fa
:04003400fa020000cc
:020000040000fa
:04003800860300003b
:020000040000fa
:04003c008603000037
:020000040000fa
:040040008603000033
:020000040000fa
:040044004a0300006b
:020000040000fa
:040048005a03000057
:020000040000fa
:04004c008603000027
:020000040000fa
:040050008603000023
:020000040000fa
:04005400860300001f
:020000040000fa
:04005800860300001b
:020000040000fa
:04005c008603000017
:020000040000fa
:040060008603000013
:020000040000fa
:04006400860300000f
:020000040000fa
:04006800860300000b
:020000040000fa
:04006c008603000007
:020000040000fa
:040070008603000003
:020000040000fa
:0400740086030000ff
:020000040000fa
:0400780086030000fb
:020000040000fa
:04007c0086030000f7
:020000040000fa
:0400800086030000f3
:020000040000fa
:0400840086030000ef
:020000040000fa
:0400880086030000eb
:020000040000fa
:04008c0086030000e7
:020000040000fa
:0400900086030000e3
:020000040000fa
:040094006a030000fb
:020000040000fa
:0400980086030000db
:020000040000fa
:04009c0086030000d7
:020000040000fa
:0400a00086030000d3
:020000040000fa
:0400a40086030000cf
:020000040000fa
:0400a80086030000cb
:020000040000fa
:0400ac0086030000c7
:020000040000fa
:0400b00086030000c3
:020000040000fa
:0400b40086030000bf
:020000040000fa
:0400b80086030000bb
:020000040000fa
:0400bc0086030000b7
:020000040000fa
:0400c00086030000b3
:020000040000fa
:0400c40086030000af
:020000040000fa
:0400c80086030000ab
:020000040000fa
:0400cc0086030000a7
:020000040000fa
:0400d00086030000a3
:020000040000fa
:0400d400860300009f
:020000040000fa
:0400d800860300009b
:020000040000fa
:0400dc008603000097
:020000040000fa
:0400e0008603000093
:020000040000fa
:0400e400860300008f
:020000040000fa
:0400e800860300008b
:020000040000fa
:0400ec008603000087
:020000040000fa
:0400f0008603000083
:020000040000fa
:0400f400860300007f
:020000040000fa
:0400f800860300007b
:020000040000fa
:0400fc008603000077
:020000040000fa
:040100008603000072
:020000040000fa
:04010400860300006e
:020000040000fa
:04010800860300006a
:020000040000fa
:04010c008603000066
:020000040000fa
:040110008603000062
:020000040000fa
:04011400860300005e
:020000040000fa
:04011800860300005a
:020000040000fa
:04011c008603000056
:020000040000fa
:040120008603000052
:020000040000fa
:04012400860300004e
:020000040000fa
:04012800860300004a
:020000040000fa
:04012c008603000046
:020000040000fa
:040130008603000042
:020000040000fa
:04013400860300003e
:020000040000fa
:04013800860300003a
:020000040000fa
:04013c008603000036
:020000040000fa
:040140008603000032
:020000040000fa
:04014400860300002e
:020000040000fa
:04014800860300002a
:020000040000fa
:04014c008603000026
:020000040000fa
:040150008603000022
:020000040000fa
:04015400860300001e
:020000040000fa
:04015800860300001a
:020000040000fa
:04015c008603000016
:020000040000fa
:040160008603000012
:020000040000fa
:04016400860300000e
:020000040000fa
:04016800860300000a
:020000040000fa
:04016c008603000006
:020000040000fa
:040170008603000002
:020000040000fa
:0401740086030000fe
:020000040000fa
:0401780086030000fa
:020000040000fa
:04017c0086030000f6
:020000040000fa
:0401800086030000f2
:020000040000fa
:0401840086030000ee
:020000040000fa
:0401880086030000ea
:020000040000fa
:04018c0086030000e6
:020000040000fa
:0401900086030000e2
:020000040000fa
:0401940086030000de
:020000040000fa
:0401980086030000da
:020000040000fa
:04019c0086030000d6
:020000040000fa
:0401a00086030000d2
:020000040000fa
:0401a40086030000ce
:020000040000fa
:0401a80086030000ca
:020000040000fa
:0401ac0086030000c6
:020000040000fa
:0401b00086030000c2
:020000040000fa
:0401b40086030000be
:020000040000fa
:0401b80086030000ba
:020000040000fa
:0401bc0086030000b6
:020000040000fa
:0401c00086030000b2
:020000040000fa
:0401c40086030000ae
:020000040000fa
:0401c80086030000aa
:020000040000fa
:0401cc0086030000a6
:020000040000fa
:0401d00086030000a2
:020000040000fa
:0401d400860300009e
:020000040000fa
:0401d800860300009a
:020000040000fa
:0401dc008603000096
:020000040000fa
:0401e0008603000092
:020000040000fa
:0401e400860300008e
:020000040000fa
:0401e800860300008a
:020000040000fa
:0401ec008603000086
:020000040000fa
:0401f0008603000082
:020000040000fa
:0401f400860300007e
:020000040000fa
:0401f800860300007a
:020000040000fa
:0401fc008603000076
:020000040000fa
:040200008603000071
:020000040000fa
:04020400860300006d
:020000040000fa
:040208008603000069
:020000040000fa
:04020c008603000065
:020000040000fa
:040210008603000061
:020000040000fa
:04021400860300005d
:020000040000fa
:040218008603000059
:020000040000fa
:04021c008603000055
:020000040000fa
:040220008603000051
:020000040000fa
:04022400860300004d
:020000040000fa
:040228008603000049
:020000040000fa
:04022c008603000045
:020000040000fa
:040230008603000041
:020000040000fa
:04023400860300003d
:020000040000fa
:040238008603000039
:020000040000fa
:04023c008603000035
:020000040000fa
:040240008603000031
:020000040000fa
:04024400860300002d
:020000040000fa
:040248008603000029
:020000040000fa
:04024c008603000025
:020000040000fa
:040250008603000021
:020000040000fa
:04025400860300001d
:020000040000fa
:040258008603000019
:020000040000fa
:04025c008603000015
:020000040000fa
:040260008603000011
:020000040000fa
:04026400860300000d
:020000040000fa
:040268008603000009
:020000040000fa
:04026c008603000005
:020000040000fa
:040270008603000001
:020000040000fa
:0402740086030000fd
:020000040000fa
:0402780086030000f9
:020000040000fa
:04027c0086030000f5
:020000040000fa
:0402800086030000f1
:020000040000fa
:0402840086030000ed
:020000040000fa
:0402880086030000e9
:020000040000fa
:04028c0086030000e5
:020000040000fa
:0402900086030000e1
:020000040000fa
:0402940086030000dd
:020000040000fa
:0402980086030000d9
:020000040000fa
:04029c0086030000d5
:020000040000fa
:0402a00086030000d1
:020000040000fa
:0402a40086030000cd
:020000040000fa
:0402a80086030000c9
:020000040000fa
:0402ac0086030000c5
:020000040000fa
:0402b00086030000c1
:020000040000fa
:0402b40086030000bd
:020000040000fa
:0402b80086030000b9
:020000040000fa
:0402bc0086030000b5
:020000040000fa
:0402c00086030000b1
:020000040000fa
:0402c40086030000ad
:020000040000fa
:0402c80086030000a9
:020000040000fa
:0402cc0086030000a5
:020000040000fa
:0402d00086030000a1
:020000040000fa
:0402d400860300009d
:020000040000fa
:0402d8008603000099
:020000040000fa
:0402dc008603000095
:020000040000fa
:0402e0008603000091
:020000040000fa
:0402e400860300008d
:020000040000fa
:0402e8008603000089
:020000040000fa
:0402ec008603000085
:020000040000fa
:0402f0008603000081
:020000040000fa
:0402f400860300007d
:020000040000fa
:0402f8008603000079
:020000040000fa
:0402fc008603000075
:020000040000fa
:040300008603000070
:020000040000fa
:04030400860300006c
:020000040000fa
:040308008603000068
:020000040000fa
:04030c008603000064
:020000040000fa
:040310008603000060
:020000040000fa
:10040000cf4f21000eff24000e01880000000000e5
:10041000000020000000e000020032000001200087
:100420002002880014000700ba0007000000e00066
:1004300003003a0060b420000100200002003700f1
:100440000000200001002000810f70000100320038
:100450000f000700000020000000e0000200320052
:100460000000020000000000d803020000000000ad
:100470000040da000000fe00c00420000000e000a0
:1004800002003200002020009001880000000600d9
:10049000a1028800800478000000eb001f003700f4
:1004a000e284440054a0b4009905ba00e2844400f8
:1004b00054a0b4009906ba00e284440054a0b400e9
:1004c0000006eb00476fde00fd07b200ae018800ba
:1004d000636ce10003003a000ad801000000eb0061
:1004e0000e003700606ce10008003a00004deb00a0
:1004f0000a05e800020039003420ec000af0a000f0
:100500008b05e900f9ff3e00040037006168e10057
:10051000010032000086eb000b00070019c7ba008b
:100520000e04e0001905ba0003003a000a00e000da
:10053000dbff3a0000000600fe07b200ae028800b2
:100540008a047800f5ff37000cd0a300e20f4d00bd
:100550001c00390089027800354dba000a05e80010
:10056000020039003420ec000af0a0008b05e900fd
:100570000f003200254dba000a05e80002003900dc
:100580003420ec000af0a0008b05e90008003200de
:100590000c00e0000600320015cdba000a05e800a4
:1005a000020039003420ec000af0a0008b05e900bd
:1005b0008984e80054a0b4000b00e000e2ff3a0098
:1005c000000006009902ba00055d78008b05e9007d
:1005d000f7ff3200c82ade00055d78008b05e900d0
:1005e000f3ff32000c00e000f1ff320019ddba0029
:1005f000eeff3700809fbe000200fa000000eb0013
:10060000000f78000068a90004d0bf00e84f500038
:1006100002003a000470ef000300370004d0bf006e
:100620000040e80004f0b7002c2eef0004d0bf001b
:100630000080fb004c00dd00a07288000000eb0091
:10064000000f780004d0bf000080fb00a14e210005
:1006500000804000104078000080fb001e0f7000fa
:1006600004d0bf000080fb00314f2100008040001b
:10067000104078000080fb004700dd001e0f700076
:100680009e007800617188000080fa004f00be0073
:1006900000400600801f78000000fa0000e8a90072
:1006a00010c0b30000f0b7000080fa004f007800df
:1006b00000400600801f78000000fa000108a90031
:1006c00010c0b30002f0b7000080fa004f007800bd
:1006d00000400600801f78000000fa000368a900af
:1006e00003d0bf00ef4f500002003a000370ef004c
:1006f0000300370003d0bf000040e80003f0b7005c
:100700000080fa004f007800004006000040da0048
:080710000000fe0000000500de
:020000040000fa
:10071800202000002074000079700000652000008f
:10072800200000002020000070720000696d0000a9
:1007380065200000200000006e6f0000742000009b
:1007480070720000696d0000650000001010000064
:100758001010000010100000101000001000000021
:1007680001000000000000000a0000000000000076
:100778006400000000000000e80300000000000022
:100788001027000000000000a08600000100000003
:10079800404200000f000000809600009800000012
:0807a80000e10000f50500006e
:020000040000fa
:1007b0007400fa000040eb00004f78000040eb00ae
:1007c000104798000040eb00204798006000b800f8
:1007d00020079800310798000040eb002057980050
:1007e0000040eb00004f98000040eb00104f9800d5
:1007f0000040eb00204f98000040eb00305798007d
:100800006000b800500f9800610f98000040eb00a6
:10081000405798000000eb00600798000000eb00d4
:10082000103f980045050700770507009005070071
:10083000a0050700b0050700bf050700f505070084
:100840002b06070061060700620707007e004700cd
:100850000e0707002023a800680ea900682ea90033
:1008600002d0bf00e14f50001d003a000000eb0035
:10087000700798000118800071079800fe00900032
:10088000e00c2000808f500003003e000000eb00d1
:10089000700798000a003700fe0090002031200009
:1008a000808f50000300360030242000700798002d
:1008b000030037007e009000f00cb1007007980034
:1008c0007e00900080004000200621000080400053
:1008d00010017800720798002023a8000270ef0032
:1008e00000d0bf00e14f50005e003a002e4890005b
:1008f000e34f500003003a000040eb00204f980007
:10090000030037002e4890000040e800204f980078
:100910002e4890000080fb00010420000008dd004c
:10092000e07388000040eb00104f9800040037008f
:10093000000000001e4890000040e800104f9800a2
:100940001e489000f34f5000f9ff3600f37180000d
:10095000330f98000040eb0030579800be0890001d
:1009600000062000008060004500de00305798003f
:10097000be08900000102000008060004600de00ed
:1009800000407800be50900000c0700030579800c2
:100990002e4890000080fb007a0040006e407800f6
:1009a00080c0ea003e50900000c0600040579800b0
:1009b0004e5090000080fb00610060000040780015
:1009c0000004e0000800320011c0b3002e4890007f
:1009d000b6010700205798007e004700ae509000f7
:1009e000b7060700190037004e5090000080fb004a
:1009f000620060000000e0000800320021c0b30087
:100a00002e489000a9010700205798007e0047005b
:100a1000ae509000aa0607000c0037004e50900020
:100a20000080fb00640060000000e000070032006e
:100a300041c0b3002e4890009c0107002057980049
:100a40007e004700ae5090009d0607002e489000a3
:100a50000080fb007a004000be50900001777800d3
:100a60000070ef001e80fb00e20f500047003200d4
:100a7000e20f500005003c000000e0000a003200d8
:100a8000e10f50001000320085013700e40f5000e4
:100a900016013200e40f50006f003500e50f5000e2
:100aa0002d0132007e013700680ea900682ea900d2
:100ab000a14e21000040eb000e02070010c0b30061
:100ac00010479800760137007e0890000000e00093
:100ad000640132007e0047009b0607002057980003
:100ae0002e509000ea4f50000a003a000e48900045
:100af000e24f500003003e000e4890000040e80026
:100b0000004f9800a14e21000e489000f901070007
:100b1000630137002e509000ec4f50000a003a005d
:100b20000e4890000004e000030032000e489000e0
:100b30000040e900004f9800a14e21000e489000af
:100b4000ec010700560137002e5090000004e00031
:100b500046013a000e4890000004e00045013a00ca
:100b600020c0b300104798000040eb0020479800d9
:100b70006000b8002007980031079800a14e2100be
:100b8000c0382800a1020700450137007e08900008
:100b90000000e000390132007e0047006a060700cd
:100ba000205798002e509000ec4f500003003a0060
:100bb00030c0b30010479800200037002e5090003e
:100bc000ea4f500006003a006000b8002007980085
:100bd000310798000040eb002047980017003700cd
:100be0002e409000e84f500014003e003e00900060
:100bf000ea01b9002e009000e000b90000014100b8
:100c0000ae009000a00020000008b80001014100e3
:100c1000820078002e5190000281fb008001eb00e1
:100c200000004100818049002007980031079800aa
:100c30002e4090000040e8002047980013c0b30009
:100c4000a24e21002e009000be009000420107003d
:100c50000170ef00120137001fe1a80040032000df
:100c60000e004000d005070020002000400f980033
:100c7000e00220000e004000800178004e09900044
:100c80002e009000be009000540507007e109000da
:100c90000000e0000a0032007e1190004e08900033
:100ca0008000eb00430320008e814100dc0507003b
:100cb0000e1990009e1990002207980033079800a3
:100cc00030002000400f9800e00220000e0040009d
:100cd000800178004e0990002e009000be00900028
:100ce0003e0507007e1090000000e0000a00320080
:100cf0007e1190004e0890008000eb00430320001e
:100d00008e814100c60507000e1990009e199000c3
:100d1000220798003307980050002000400f9800e9
:100d2000e00220000e004000800178004e09900093
:100d30002e009000be009000280507007e10900055
:100d40000000e0000a0032007e1190004e08900082
:100d50008000eb00430320008e814100b0050700b6
:100d60000e1990009e1990002207980033079800f2
:100d70000000eb00000f980010002000000f98000a
:100d8000330037000e089000e600b9000000e800cc
:100d9000400f9800e00220000e0040008001780023
:100da0004e0990002e009000be0090000b05070039
:100db0007e1090000000e0000a0032007e119000da
:100dc0004e0890008000eb00430320008e8141001c
:100dd000930507000e1990009e19900022079800b5
:100de000330798000e089000e600b9006500400047
:100df000400f9800e00220000e00400080017800c3
:100e00004e0990002e009000be009000f3040700f1
:100e10007e1090000000e0000a0032007e11900079
:100e20004e0890008000eb00430320008e814100bb
:100e30007b0507000e1990009e199000220798006c
:100e4000330798000e0890000000e800000f98009b
:100e50008e08900060492100808f5000c9ff360045
:100e60002e019000be019000100020000100200023
:100e7000800f5100818f590007003200400320008d
:100e80000e00400080017800120020002e0090002b
:100e9000be009000620507002e1890000000e000e0
:100ea000060032002e189000e10f500006003a00b4
:100eb0007e289000e10f500003003a00100020004f
:100ec00060079800020037000000eb006007980000
:100ed0001fe1a900bf0507000000eb00103f9800cc
:100ee00040c0b300104798006d0037006e009000be
:100ef000e10f500005003a00680ea800a14e210045
:100f000060392800c101070004003700682ea800de
:100f1000a14e2100003a2800bc0107007e08900085
:100f20000000e000570032007e0047008605070001
:100f3000205798006e009000e10f500003003a0027
:100f40000040eb00104798005500370050c0b30038
:100f500010479800520037001e3890004200dd0014
:100f60000080e8004003b0000000470090009000bf
:100f70001000780013c0b300a24e210076000700d5
:100f80007e0890000000e000400032007e00470034
:100f90006d050700205798002e509000ea4f500032
:100fa00013003a002e1890008000e9001e389000cf
:100fb000808f5000030036001e3890000000e800cb
:100fc000103f98001e3890004200dd000080e800cd
:100fd0004003b0000000470090009000100078002f
:100fe00013c0b300a24e21005b0007002c003700a5
:100ff0002e509000ec4f500011003a001e38900027
:101000000000e000030032001e3890000000e900fc
:10101000103f98001e3890004200dd000080e8007c
:101020004003b000000047009000900010007800de
:1010300013c0b300a24e210047000700180037007c
:101040002e5090000004e00012003a000e4890007c
:101050000004e00011003a000040eb001047980047
:101060000f003700000000000d00370000000000f6
:101070000b003700000000000900370000000000ee
:1010800007003700000000000500370000000000e6
:1010900003003700000000000100370000000000de
:1010a0009e419000034f7800edfd37000400fa00e8
:1010b00020479800314798000040eb00004f78002f
:1010c0003e409000e14f500006003a00ae409000d4
:1010d000d00f20008088b900004078006a4f40009f
:1010e0001a0037003e409000e24f50000c003a00da
:1010f0002e4090000004e00003003a000040eb00a6
:10110000004f780011003700ae409000d00f200053
:101110008088b900004078006b4f40000b0037001a
:101120003e409000e44f500006003a00ae40900070
:10113000d00f20008088b900004078006c4f40003c
:10114000020037000040eb00004f78001e4078009e
:101150000080fa00000006003600fa0070179800c0
:10116000011f9800121f980043779800e100470084
:10117000a23a280008000900b25878000040eb00ad
:10118000004f7800ea004700423b280011000900a8
:10119000b218780090c0b300004f78001f003700ed
:1011a0001e80fb004200dd006a0040000000470096
:1011b00090009000100078007e1190008e19900031
:1011c000000051008180590070179800011f98009d
:1011d0001e80fb008000e800eec078008140e8003f
:1011e0000000e800017778000100370000000000ef
:1011f0001e80fb004200dd006a0040000000470046
:1012000010017800900190007e1090008e189000e0
:10121000800f5100818f5900e1ff36001e80fb00d6
:101220000000ea004f00de00004078001e4fe90099
:101230000004e000edff3a004e709000e14f5000d6
:1012400015003a0090c0b300004f78000900370045
:101250001e80fb000000e8006e407800f04f500058
:101260000c003a001e80fb000000e8008040eb000c
:10127000017778001e80fb000000ea004f00de00ce
:10128000004078001e4fe9000004e000f0ff3a0043
:10129000010037000000000090c0b300004f78004c
:1012a0000b0037001e80fb009e189000008040005d
:1012b0009e80fb008100e800eec078008180fb008a
:1012c00062002100810041009140780001487800cf
:1012d0001e80fb000000ea004f00de0000407800a6
:1012e0001e4fe9000004e000eeff3a000080fa0023
:1012f000000006000400fa00004f78001107980073
:101300001e80fb00e10f500037003200e10f50005b
:1013100003003c000000e00006003200b900370086
:10132000e20f50005d003200e30f500088003200f1
:10133000b40037001e00900068004000c102210088
:1013400091407800014878001e009000670040003e
:101350007102210091407800014878001e00900041
:101360006600400091042100914078000148780017
:101370001e00900065004000a1052100914078000a
:10138000014878001e0090006400400051052100d3
:1013900091407800014878001e00900063004000f2
:1013a0008105210091407800014878001e009000de
:1013b0000080e80061002100914078000148780039
:1013c0001e0090000000e8006100210091407800bc
:1013d0000148780060002100904078001e009000d5
:1013e00001487800870037001e0090006800400028
:1013f0006103210091407800014878001e009000b0
:1014000067004000210321009140780001487800e6
:101410001e0090006600400071022100914078009b
:10142000014878001e00900065004000f105210091
:1014300091407800014878001e0090006400400050
:101440006100210091407800014878001e00900062
:10145000630040006100210091407800014878005d
:101460001e0090000080e80061002100914078009b
:10147000014878001e0090000000e8006100210093
:101480009140780001487800600021009040780089
:101490001e009000014878005a0037001e0090009e
:1014a00068004000b10221009140780001487800b6
:1014b0001e00900067004000310321009140780039
:1014c000014878001e009000660040006103210082
:1014d00091407800014878001e00900065004000af
:1014e000a103210091407800014878001e0090007f
:1014f00064004000f1032100914078000148780029
:101500001e009000630040006100210091407800bf
:10151000014878001e0090000080e8006101210071
:1015200091407800014878001e0090000000e8001b
:10153000610021009140780001487800600021009e
:10154000904078001e009000014878002d00370080
:101550001e00900068004000b10221009140780018
:10156000014878001e009000670040003103210010
:1015700091407800014878001e009000660040000d
:101580006103210091407800014878001e0090001e
:1015900065004000a10321009140780001487800d7
:1015a0001e00900064004000f1032100914078008b
:1015b000014878001e009000630040006100210097
:1015c00091407800014878001e0090000080e800fb
:1015d0007101210091407800014878001e009000c0
:1015e0000000e80061002100914078000148780087
:1015f00060002100904078001e00900001487800b3
:10160000000000000080fa00000006000600fa005a
:1016100010079800210798000040eb00004f780069
:101620000040eb00104798000040eb00004f7800ae
:10163000110037009e0090001e80fb0000804000db
:1016400090407800114798001e80fb006800100051
:10165000ae009000008040009e4090008180fb0022
:101660000102b10062002100810041009140780038
:10167000014878001e4fe8001e407800e84f5000f7
:0c168000ecff36000080fa0000000600bd
:020000040000fa
:10168c0006100000e40400008200000000000000ce
:10169c0000000000000000000000000000400000fe
:1016ac00003f06005d4f66006b7b0e007f6f0000f5
:1016bc0000000000000000007e7f39003f797800b8
:1016cc007b763000177631003e3e3f007c6e7e000c
:1016dc006b71370037377600675d00000000000043
:1016ec00010153007351570079786f007210170085
:1016fc0076303e0052537c006e506b0071371300f5
:10170c00377667005d0059000257020055025300fe
:10171c000252020050024e00024d02004b024900e0
:10172c0002480200460244000243020041023f000c
:10173c00023e02003c023b00023902003702360036
:10174c000234020033023100023002002e022d005e
:10175c00022b020029022800022602002502230087
:10176c000222020020021f00021d02001c021a00ad
:10177c0002190200180216000215020013021200d0
:10178c00021002000f020d00020c02000b020900f5
:10179c000208020006020500020402000202010017
:1017ac0002ff0100fe01fd0001fb0100fa01f9003e
:1017bc0001f70100f601f50001f30100f201f1005f
:1017cc0001ef0100ee01ed0001eb0100ea01e9007f
:1017dc0001e70100e601e50001e40100e201e1009e
:1017ec0001e00100de01dd0001dc0100db01d900bc
:1017fc0001d80100d701d60001d40100d301d200d9
:10180c0001d10100cf01ce0001cd0100cc01ca00f5
:10181c0001c90100c801c70001c60100c401c30011
:10182c0001c20100c101c00001be0100bd01bc002c
:10183c0001bb0100ba01b90001b70100b601b50046
:10184c0001b40100b301b20001b00100af01ae0060
:10185c0001ad0100ac01ab0001aa0100a801a70079
:10186c0001a60100a501a40001a30100a201a00092
:10187c00019f01009e019d00019c01009b019a00ab
:10188c0001990100980197000195010094019300c2
:10189c000192010091019000018f01008e018d00d9
:1018ac00018c01008b018a000188010087018600f0
:1018bc000185010084018300018201008101800007
:1018cc00017f01007e017d00017c01007b017a001b
:1018dc000179010078017700017601007401730031
:1018ec000172010071017000016f01006e016d0049
:1018fc00016c01006b016a0001690100680167005d
:10190c000166010065016400016301006201610070
:10191c00016001005f015e00015d01005c015b0084
:10192c00015a010059015800015701005601550098
:10193c0001540100530152000151010050014f00ac
:10194c00014e01004d014c00014b01004b014a00be
:10195c0001490100480147000146010045014400ce
:10196c000143010042014100014001003f013e00e2
:10197c00013d01003c013b00013a010039013800f6
:10198c000137010036013500013501003401330007
:10199c000132010031013000012f01002e012d0018
:1019ac00012c01002b012a0001290100280127002c
:1019bc00012701002601250001240100230122003a
:1019cc000121010020011f00011e01001d011c004e
:1019dc00011b01001b011a0001190100180117005d
:1019ec000116010015011400011301001201110070
:1019fc000110010010010f00010e01000d010c007f
:101a0c00010b01000a010900010801000701070090
:101a1c00010601000501040001030100020101009f
:101a2c0001000100ff00fe0000fe0000fd00fc00b4
:101a3c0000fb0000fa00f90000f80000f700f600c7
:101a4c0000f60000f500f40000f30000f200f100d5
:101a5c0000f00000ef00ee0000ee0000ed00ec00e6
:101a6c0000eb0000ea00e90000e80000e700e600f7
:101a7c0000e60000e500e40000e30000e200e10005
:101a8c0000e00000df00df0000de0000dd00dc0015
:101a9c0000db0000da00d90000d80000d800d70025
:101aac0000d60000d500d40000d30000d200d10035
:101abc0000d10000d000cf0000ce0000cd00cc0043
:101acc0000cb0000ca00ca0000c90000c800c70053
:101adc0000c60000c500c40000c30000c300c20063
:101aec0000c10000c000bf0000be0000bd00bc0073
:101afc0000bc0000bb00ba0000b90000b800b70081
:101b0c0000b60000b500b50000b40000b300b20090
:101b1c0000b10000b000af0000ae0000ae00ad00a0
:101b2c0000ac0000ab00aa0000a90000a800a800af
:101b3c0000a70000a600a50000a40000a300a200be
:101b4c0000a10000a100a000009f00009e009d00cd
:101b5c00009c00009b009a00009a000099009800dd
:101b6c0000970000960095000094000093009200ee
:101b7c000092000091009000008f00008e008d00fc
:101b8c00008c00008b008b00008a0000890088000c
:101b9c00008700008600850000840000840083001c
:101bac000082000081008000007f00007e007d002c
:101bbc00007c00007c007b00007a0000790078003b
:101bcc00007700007600750000740000740073004c
:101bdc000072000071007000006f00006e006d005c
:101bec00006c00006b006b00006a0000690068006c
:101bfc00006700006600650000640000630062007e
:101c0c000062000061006000005f00005e005d008b
:101c1c00005c00005b005a0000590000580058009e
:101c2c0000570000560055000054000053005200ad
:101c3c000051000050004f00004e00004d004c00c1
:101c4c00004c00004b004a000049000048004700cf
:101c5c0000460000450044000043000042004100e3
:101c6c00004000003f003e00003d00003d003c00f5
:101c7c00003b00003a003900003800003700360005
:101c8c000035000034003300003200003100300019
:101c9c00002f00002e002d00002c00002b002a002d
:101cac000029000028002700002600002500240041
:101cbc0000230000220021000021000020001f0052
:101ccc00001e00001d001c00001b00001a00190063
:101cdc000018000017001600001500001400130077
:101cec000012000010000f00000e00000d000c0090
:101cfc00000b00000a0009000008000007000600a5
:101d0c0000050000040003000002000001000000b8
:101d1c0000000000ea140000120000008000000027
:101d2c000010000006000000800000000000000011
:020000040000fa
:101d3c000000fa004567a900213a8000f08f2f00bf
:101d4c0000806000203a8800213a800000fe2f00bd
:101d5c0000806000203a8800313a800000e02f00bb
:101d6c00808060009004200001007000303a8800f0
:101d7c00213a8000f0f32f0000806000203a8800a8
:101d8c001200200080072000a109200033742000dd
:101d9c00804978008149780082497800103a8000a7
:101dac00000178000200a0006004200071052000f2
:101dbc00237420008049780081497800824978009a
:101dcc0000000000113a80000000270080806000b5
:101ddc0000002100808f5000faff3a000000000044
:101dec00113a800000022000008060000000e0003a
:101dfc00fbff32000080fa00000006000000fa0031
:101e0c00042eef00182eef000038200060718800bf
:101e1c00402eef00542eef00682eef007c2eef00ca
:101e2c000040200000708800142eef00282eef00d8
:101e3c0000162000e0718800502eef00642eef0099
:101e4c00782eef000040200070708800222eef00ea
:101e5c00362eef005e2eef00862eef000080fa008b
:101e6c00000006000000fa0005e1a90005a1a90088
:101e7c0004c1a90021088000f0fc2f000080600044
:101e8c000050a000200888000421a9000021ef00c8
:101e9c0080432000100888000068a90005e1a80014
:101eac000080fa00000006000000fa0011e1a90011
:101ebc0011a1a90010c1a900810880000003200015
:101ecc0001007000800888001061a9001021a90091
:101edc000621ef00b0a820006008880000e8a900e7
:101eec0011e1a8000080fa00000006000000fa00d2
:101efc0013e1a90013a1a90012c1a9009108800047
:101f0c000003200001007000900888001221a90035
:101f1c000a21ef000080eb00700888000108a9007e
:101f2c0013e1a8000080fa00000006000000fa008f
:101f3c001fe1a9001fa1a9001ec1a900f108800082
:101f4c00f0fc2f00008060000040a000f00888002a
:101f5c001e21a9001421ef00d01b2200d0088800fc
:101f6c000368a9001fe1a8000080fa000000060029
:101f7c000000fa000080eb0020608800282cef00a5
:101f8c00482cef00682cef004006200030618800e0
:101f9c00c012200030628800401f2000306388008f
:101fac002a2cef004a2cef006a2cef002c2cef00af
:101fbc004c2cef006c2cef0000c02c001061880042
:101fcc0000c02c001062880000c02c001063880038
:101fdc00202cef00402cef00602cef003000200094
:101fec002061880030002000206288003000200032
:101ffc0020638800022cef0000002800006088009d
:10200c000080fa00000006000000fa0021a3a900dd
:10201c002183a9002143a90001198000f0cf2f00d2
:10202c0000806000001988002043a9002083a900cb
:10203c0001198000000e20000100700000198800ba
:10204c002063a80011198000f0ff210000806000bf
:10205c00101988002343a9001119800000302000ba
:10206c0001007000101988001119800030f82f0041
:10207c0000806000101988002223a9002203a90007
:10208c0025e3a9002119800000f021000100700057
:10209c002019880090c0b30024e3b7003303a900d3
:1020ac0028e3a9004119800000fc2f00808060000b
:1020bc008003200001007000401988003119800055
:1020cc0090ff2f0000806000301988002683a90043
:1020dc002663a9002603a90021e3a8000080fa00ca
:1020ec00000006000000fa00c3e8a900c1e8a9003e
:1020fc000068a90001428000f0ff28008080600089
:10210c000000250001007000004288002068a80033
:10211c0000e8a90011428000f0ff28000080600058
:10212c0000e0a0001042880020e8a8000108a900e7
:10213c002142800080ff2f00008060003000b3003f
:10214c00204288002108a8000368a9006142800091
:10215c00f0ff28000080600000d0a00060428800e2
:10216c002368a8000148a9003142800080ff2f009d
:10217c00008060003000b300304288002148a90084
:10218c000168a90021428000f0ff280080806000d7
:10219c000000230001007000204288002168a90083
:1021ac000188a9003142800080ff2f000080600070
:1021bc00304288002188a9000080fa000000060047
:1021cc000000fa00c3e8a8000080fa000000060036
:1021dc002000fa00400f9800510f9800620f9800f1
:1021ec00730f98000040eb00204f98000040eb006c
:1021fc00304f98004e099000de099000028fbe000f
:10220c007e0890008000eb00010878007e089000aa
:10221c004e099000de0990001200980023009800ef
:10222c001e0078009e0090004008de0060079800b9
:10223c009e01780073079800ee0890006e009000e5
:10224c00e6000700000f9800110f98000e08900090
:10225c009e089000c000dd000000200020079800c0
:10226c00310798000e0890009e0890004008de0090
:10227c00400798006000b800200f9800310f9800bc
:10228c00f0c0b300204f9800f0c0b300204f98006e
:10229c00280037004e0090000000400080007800bd
:1022ac002e4890000000fb007e0190000010de0024
:1022bc0061006000010070008000eb00200f9800ae
:1022cc00310f98006e0890006101b8002e08900044
:1022dc00be089000800f5100818f590010003e0005
:1022ec002e4890000000fb00110020000008dd00cb
:1022fc008000eb002e019000be01900000007100e8
:10230c00818071002007980031079800ae0890007a
:10231c006e089000008050004007980002003700c3
:10232c00ae089000410798002e4890000040e9004c
:10233c00204f98002e4890000004e000d5ff3d008f
:10234c002e019000be019000028fbe004e00900046
:10235c000000e0000c003a003e4890000040e8000d
:10236c00304f98003e4890008080fb007e08900023
:10237c00010878007e0890002e019000be019000ac
:10238c0012009800230098004e0090000000e0001e
:10239c00a3ff32000080fa00000006000400fa00df
:1023ac00100798001e0090008000eb0001087800d8
:1023bc000000eb00000f78000000eb00000f78002d
:1023cc000f0037009e0090001e0078004200dd00d8
:1023dc00008040000081e8006000b8000089be0069
:1023ec009e0090001e017800750041000000400026
:1023fc00008040008000eb00010878001e0fe80010
:10240c001e007800e90f5000eeff36000080fa0045
:10241c00000006000800fa00008fbe00220798009a
:10242c00330798003e00900010007800be0090002a
:10243c004200dd00008040000080e8003e1878007b
:10244c002e1078003e00900010007800be00900026
:10245c00750040000000400000804000ae0090007d
:10246c00010878003e009000100078008000e80021
:10247c003e009000010878000080fa000000060081
:10248c000200fa00000f78001e0078008000eb00bc
:10249c00010878001e0078008000eb001100980005
:1024ac001e0078008000eb00210098000080fa00ec
:1024bc00000006000400fa00000f78002147980085
:1024cc001e00780010007800e90f500019003e0043
:1024dc001e007800200090009e00780000804000d4
:1024ec0066004000ae409000014878001e00780065
:1024fc0020009000e90f500004003a001e00780004
:10250c008000eb0021009800050037001e007800c9
:10251c00200090008000e8001e0078002100980048
:10252c001e007800100078008000e8001e00780083
:10253c00010878000080fa00000006000400fa0090
:10254c00100798001e009000100078000000e000ba
:10255c0002003a0000c0eb00190037001e0090008a
:10256c00100090009e00900066004000008040002b
:10257c00104f78001e00900010009000e90f5000e2
:10258c0004003a001e0090008000eb00110098003f
:10259c00050037001e009000100090008000e8003d
:1025ac001e009000110098001e0090001000780092
:1025bc008000e9001e009000010878001e407800a1
:1025cc000080fa00000006000000fa001fe1a900dc
:1025dc001421ef000080fa000000060001017800d1
:0c25ec00110009000280d8000000060069
:020000040000fa
:020000040005f5
:04570000ffff0000a7
:020000040000fa
:020000040005f5
:04572000ffff000087
:020000040000fa
:020000040005f5
:0457300078ff0000fe
:020000040000fa
:020000040005f5
:045738007bff0000f3
:020000040000fa
:020000040005f5
:045740009fff0000c7
:020000040000fa
:020000040005f5
:04574800ffff00005f
:020000040000fa
:020000040005f5
:04575000fdff000059
:020000040000fa
:020000040005f5
:04575800ffff00004f
:020000040000fa
:020000040005f5
:04576000ffff000047
:020000040000fa
:020000040005f5
:04576800ffff00003f
:020000040000fa
:020000040005f5
:04577000ffff000037
:020000040000fa
:020000040005f5
:04577800feff000030
:020000040000fa
:020000040005f5
:04578000ffff000027
:020000040000fa
:020000040005f5
:04578800ffff00001f
:00000001FF
